:0400000080313128F2
:100008007E1480314E01961E0A280B2813288C1E58
:100018000E280F28132882319A2280312F28161C87
:10002800162817281F280C1C1A281B281F2882315D
:10003800A02280312F280B1F222823282F289A1C22
:10004800262827282F28901C2A282B282F2881315A
:10005800C52180312F287E10090080313328823154
:10006800B7228031FA00F001F101F201F301F40145
:10007800F501B201B301B401B501B601B701B80188
:10008800B901BA01BB01BC01BD017E10400181313B
:10009800622982314F22803104308131F52180314B
:1000A8008231B4228031823157228031003A031DD7
:1000B8005E285F28572882319422803177084001D2
:1000C800BB007608BA0005308131F52180318231D4
:1000D800B4228031823157228031003A031D7528BD
:1000E80076286E2882319422803177084001B90041
:1000F8007608B80002308131F52180318231B4228E
:100108008031823157228031003A031D8C288D2896
:10011800852882319422803177084001B70076081B
:10012800B60008004E018C12400132083304031D4A
:100138009E289F28C9283230B2000030B3007A08C0
:100148000319A728A828B82803307102FE3003191C
:1001580070020318B028B128B6280130F007003023
:10016800F13DCD28FA01CD28003071020230031983
:100178007002031CC028C128C6280130F0020030D4
:10018800F13BCD28FA01FA0ACD280130B20200303D
:10019800B33B0800400198019A01373092002A3099
:1001A800940015307E01CE001F30B800B901CF0190
:1001B800BA01D0011F30BB003F30D1003F30BC0036
:1001C8003F30D20013307D01900011307E01A00035
:1001D8000F30A4000B30A20011307D01CD00153086
:1001E800CB000800083054019F0090309D00243057
:1001F8009E00A0309B0001309C0000304001BE00F2
:100208000030BF0082317622803100304001BE00CC
:100218000030BF0082317022803100304001BE00C2
:100228000030BF0082317C228031F40108000830A0
:1002380042019F0090309D0024309E00A0309B001A
:1002480001309C0000304001BE000030BF00823108
:100258008822813100304001BE000030BF00823169
:100268008222813100304001BE000030BF0082315F
:100278008E228131F50108008231372281318031A7
:10028800CE20813182311C2281318231AA228131F2
:1002980082313F22813182312F2281318131832184
:1002A80081318131DA2181318131B021813181314E
:1002B8001B2181318031F6208131080081314021B4
:1002C80081318B170B1796304001BE000030BF00FC
:1002D80082316422813126304001BE000230BF00E5
:1002E80082315E2281318231B12281318231A6226E
:1002F800813182312F2281318029803131280130AA
:10030800450190008F019101FF308D008C014E0155
:1003180090109A14B8304001BE000230BF008231FC
:100328005E228131B03045018E0008007708F9005F
:100338007608F800F936F80CF936F80C7808460112
:10034800950076080339F8000530F835FF3E031D9F
:10035800A92978359400080080304B019F001E3091
:100368009D009C014E018C129616B9304001BE00CA
:100378000230BF0082316422813180304B019E00FF
:1003880008004E0190100130F2070030F33D0130B3
:100398007302873003197202031CD329D429D9297F
:1003A8008131E8218131F201F30108004E010C107E
:1003B8000B14BA304001BE000230BF0082316A22FD
:1003C80081314E0116140800400122082304031944
:1003D800EE29EF29F42923088A0022080A0081312E
:1003E8000800F7007708F600F60DF60D41011D0824
:1003F8007606033976069D001D1408004001200882
:1004080021040319082A092A0E2A21088A0020082B
:100418000A00823108004001300831040319152A06
:10042800162A1B2A31088A0030080A00823108007F
:10043800613051018D008F019101063093009001C8
:10044800920108004E01901080314D208231823196
:100458004722823108009030460196007F3095008F
:10046800C030940008004F01960197019801990146
:100478009A019B010800C33041019E009B019C0129
:1004880001309D0008007108F7007008F6008131FE
:100498009A2182310800C33041019E009B019C01D2
:1004A80001309D000800031041019D1C0314003019
:1004B800093D080040013F08A3003E08A2000800CB
:1004C80040013F08A1003E08A000080040013F0885
:1004D800B1003E08B000080040013F08A7003E08F0
:1004E800A600080040013F08A9003E08A80008002F
:1004F80040013F08A5003E08A400080040013F084D
:10050800AD003E08AC00080040013F08AF003E08BF
:10051800AE00080040013F08AB003E08AA000800F2
:1005280041011C08F7001B08F60008004E018C1258
:1005380082310222823108004E010C1082310F22D2
:10054800823108008231AE22823108008A3052019D
:100558008C00080045018E1708004B019E17080003
:0E05680041019D14080001340800080008003D
:020000040001F9
:0A000E00EC3FFF3F9F3FFF3FFF3F25
:00000001FF
