:0400000080313128F2
:100008007E1480314E01961E0A280B2813288C1E58
:100018000E280F2813288231702280312F28161CB1
:10002800162817281F280C1C1A281B281F2882315D
:10003800762280312F280B1F222823282F289A1C4C
:10004800262827282F28901C2A282B282F2881315A
:10005800A32180312F287E10090080313328F00138
:10006800F101F201F301F401F501F601F701400194
:10007800B201B301B401B501B601B701B801B901C4
:100088007E104001813123298231252280310430BC
:100098008131D321803182318A22803182312D22EF
:1000A8008031003A031D59285A28522882316A2281
:1000B800803179084001B7007808B60005308131F1
:1000C800D321803182318A22803182312D228031C0
:1000D800003A031D70287128692882316A2280310C
:1000E8007908F3007808F20002308131D321803199
:1000F80082318A22803182312D228031003A031DDB
:10010800862887287F2882316A2280317908F10081
:100118007808F0000800400198019A0137309200F1
:100128002A30940015307E01CE001F30B800B90186
:10013800CF01BA01D0011F30BB003F30D1003F30A2
:10014800BC003F30D20013307D01900011307E0199
:10015800A0000F30A4000B30A20011307D01CD00AB
:100168001530CB000800083054019F0090309D00E6
:1001780024309E00A0309B0001309C0000304001DC
:10018800BA000030BB0082314C228031003040017F
:10019800BA000030BB008231462280310030400175
:1001A800BA000030BB00823152228031F6010800CB
:1001B800083042019F0090309D0024309E00A030FE
:1001C8009B0001309C0000304001BA000030BB00A9
:1001D80082315E22803100304001BA000030BB001D
:1001E80082315822803100304001BA000030BB0013
:1001F800823164228031F701080082311522813171
:1002080080318F2081318131FA2181318231802200
:10021800813182311D22813182310D22813181313A
:10022800612181318131B821813181318E21813142
:100238008031DC2081318031B72081310800813163
:10024800012181318B170B178D304001BA00023024
:10025800BB0082313A22813104304001BA000230B9
:10026800BB0082313422813182318722813182314F
:100278007C22813182310D2281314129803131281E
:1002880073087102031D4A2972087002031C4D2964
:100298004E29542973084001B5007208B400592941
:1002A80071084001B5007008B4003508F900340839
:1002B800F800813178218131080001304501900032
:1002C8008F019101FF308D008C014E0190109A141E
:1002D80090304001BA000230BB00823134228131B3
:1002E800B03045018E0008007908FB007808FA0054
:1002F800FB36FA0CFB36FA0C7A08460195007808AA
:100308000339FA000530FA35FF3E031D87297A358F
:100318009400080080304B019F001E309D009C0116
:100328004E018C12961691304001BA000230BB0083
:1003380082313A22813180304B019E0008004E0103
:1003480090100130F4070030F53D01307502873018
:1003580003197402031CB129B229B7298131C621B6
:100368008131F401F50108004E010C100B14923094
:100378004001BA000230BB008231402281314E0177
:10038800161408004001220823040319CC29CD299A
:10039800D22923088A0022080A0081310800F900BE
:1003A8007908F800F80DF80D41011D0878060339A1
:1003B80078069D001D140800400120082104031937
:1003C800E629E729EC2921088A0020080A0081315A
:1003D80008004001300831040319F329F429F929E8
:1003E80031088A0030080A00813108006130510163
:1003F8008D008F0191010630930090019201080051
:100408004E0190108031482082318131442182315F
:1004180008009030460196007F309500C030940067
:1004280008004F0196019701980199019A019B01D3
:100438000800C33041019E009B019C0101309D00D2
:100448000800C33041019E009B019C0101309D00C2
:100458000800031041019D1C03140030093D0800E9
:1004680040013B08A3003A08A200080040013B08ED
:10047800A1003A08A000080040013B08B1003A0872
:10048800B000080040013B08A7003A08A600080091
:1004980040013B08A9003A08A800080040013B08B1
:1004A800A5003A08A400080040013B08AD003A083E
:1004B800AC00080040013B08AF003A08AE00080055
:1004C80040013B08AB003A08AA00080041011C089B
:1004D800F9001B08F80008004E018C128131E02158
:1004E800823108004E010C108131ED218231080063
:1004F80082318422823108008A3052018C0008003F
:1005080045018E1708004B019E17080041019D14F4
:0E05180008004E018C120800080008000800C0
:020000040001F9
:0A000E00EC3FFF3F9F3FFF3FFF3F25
:00000001FF
