:0400000080313128F2
:100008007E1480314E01961E0A280B2813288C1E58
:100018000E280F28132882310C2280312F28161C15
:10002800162817281F280C1C1A281B281F2882315D
:10003800122280312F280B1F222823282F289A1CB0
:10004800262827282F28901C2A282B282F2881315A
:10005800362180312F287E10090080313328F001A5
:10006800F101F201F301F401F501F601F701F801DC
:10007800F9017E1040018031D228400198019A018F
:10008800333092002A30940015307E01CE001F30A4
:10009800B800B901CF01BA01D0011F30BB003F3011
:1000A800D1003F30BC003F30D20013307D019000BA
:1000B80011307E01A0000F30A4000B30A2001130D7
:1000C8007D01CD001530CB000800083054019F0099
:1000D80090309D0024309E00A0309B0001309C0091
:1000E80000304001B2000030B3008131E821803196
:1000F80000304001B2000030B3008131E22180318C
:1001080000304001B2000030B3008131EE2180316F
:10011800F8010800083042019F0090309D0024300B
:100128009E00A0309B0001309C0000304001B200CE
:100138000030B3008131FA21803100304001B20033
:100148000030B3008131F421803100304001B20029
:100158000030B300823100228031F901080081317A
:10016800B121803180314120803181319F2180311E
:100178008131B92180318131A921803181310A2130
:10018800803181315D21803181312121803180317F
:100198008E20803180316920803108008031B32081
:1001A80080318B170B1725304001B2000230B300A5
:1001B8008131D62180314B304001B2000130B3008B
:1001C8008131D021803182311F2280318231182241
:1001D8008031ED28803131288131C12180310430CE
:1001E8008131782180318231222280318131C921C7
:1001F8008031003A031D01290229FA28823106229A
:1002080080317B08F3007A08F200080001304501CC
:1002180090008F019101FF308D008C014E019010EC
:100228009A1428304001B2000230B3008131D02145
:100238008131A03045018E00080080304B019F00BD
:100248001E309D009C014E018C12961629304001EB
:10025800B2000230B3008131D621813180304B01A8
:100268009E0008004E0190100130F4070030F53D63
:1002780001307502873003197402031C442945298B
:100288004A2981316B218131F401F50108004E01C1
:1002980090108031F020813103104001181D0314A3
:1002A800031857295A29400118155C2940011811CB
:1002B80008004E010C100B142A304001B200023025
:1002C800B3008131DC2181314E0116140800400150
:1002D80022082304031971297229772923088A001F
:1002E80022080A0081310800FB007B08FA00FA0D99
:1002F800FA0D41011D087A0603397A069D001D147E
:10030800080040012008210403198B298C29912910
:1003180021088A0020080A008131080040013008BD
:1003280031040319982999299E2931088A0030082F
:100338000A0081310800613051018D008F0191015F
:100348000630930090019201080080304601960023
:100358007F309500C030940008004F019601970146
:10036800980199019A019B010800803041019E0083
:100378009B019C0101309D000800803041019E00D6
:100388009B019C0101309D000800031041019D1C48
:1003980003140030093D080040013308A300320867
:1003A800A200080040013308A1003208A00008009C
:1003B80040013308B1003208B0000800400133089A
:1003C800A7003208A600080040013308A900320837
:1003D800A800080040013308A5003208A40008005E
:1003E80040013308AD003208AC0008004001330872
:1003F800AF003208AE00080040013308AB003208F5
:10040800AA00080041011C08FB001B08FA000800AC
:100418004E018C1281318521823108004E010C1069
:10042800813192218231080082311C2282310800F8
:1004380045018E1708004B019E17080041019D14C5
:0E04480008004E018C12080008000800080091
:020000040001F9
:0A000E00EC3FFF3F9F3FFF3FFF3F25
:00000001FF
