:0400000080313128F2
:100008007E1480314E01961E0A280B2813288C1E58
:100018000E280F2813288231752280312F28161CAC
:10002800162817281F280C1C1A281B281F2882315D
:100038007B2280312F280B1F222823282F289A1C47
:10004800262827282F28901C2A282B282F2881315A
:10005800A82180312F287E10090080313328823171
:1000680095228031FA00F001F101F201F301F40167
:10007800F501B201B301B401B501B601B701B80188
:10008800B901BA01BB01BC01BD017E10400181313B
:10009800292982312A22803104308131D8218031C6
:1000A80082318F228031823132228031003A031D21
:1000B8005E285F28572882316F22803177084001F7
:1000C800BB007608BA0005308131D82180318231F1
:1000D8008F228031823132228031003A031D752807
:1000E80076286E2882316F2280317708F1007608F1
:1000F800F00002308131D821803182318F22803165
:10010800823132228031003A031D8B288C288428C2
:1001180082316F22803177084001B9007608B80033
:100128000800400198019A01373092002A30940063
:1001380015307E01CE001F30B800B901CF01BA01D9
:10014800D0011F30BB003F30D1003F30BC003F30F2
:10015800D20013307D01900011307E01A0000F30D5
:10016800A4000B30A20011307D01CD001530CB006A
:100178000800083054019F0090309D0024309E00F4
:10018800A0309B0001309C0000304001BE000030D0
:10019800BF0082315122803100304001BE00003062
:1001A800BF0082314B22803100304001BE00003058
:1001B800BF00823157228031F40108000830420123
:1001C8009F0090309D0024309E00A0309B0001309D
:1001D8009C0000304001BE000030BF008231632225
:1001E800803100304001BE000030BF0082315D2206
:1001F800803100304001BE000030BF0082316922EA
:100208008031F501080082311A2281318031952030
:1002180081318131FF2181318231852281318231E1
:10022800222281318231122281318131662181314C
:100238008131BD2181318131932181318031E220A9
:1002480081318031BD208131080081310721813120
:100258008B170B1792304001BE000230BF0082316D
:100268003F22813109304001BE000230BF00823197
:100278003922813182318C2281318231812281314E
:100288008231122281314729803131287108400199
:100298003902031D512970083802031C54295529B5
:1002A8005A297108B7007008B6005E293908B700E6
:1002B8003808B6003708F7003608F60081317D2186
:1002C800813108000130450190008F019101FF3014
:1002D8008D008C014E0190109A1496304001BE009A
:1002E8000230BF00823139228131B03045018E00A1
:1002F80008007708F9007608F800F936F80CF9369E
:10030800F80C78084601950076080339F80005309E
:10031800F835FF3E031D8C2978359400080080309D
:100328004B019F001E309D009C014E018C129616B9
:1003380097304001BE000230BF0082313F22813138
:1003480080304B019E0008004E0190100130F207EA
:100358000030F33D01307302873003197202031C29
:10036800B629B729BC298131CB218131F201F301AA
:1003780008004E010C100B1498304001BE000230EA
:10038800BF008231452281314E0116140800400118
:10039800220823040319D129D229D72923088A003E
:1003A80022080A0081310800F7007708F600F60DE8
:1003B800F60D41011D087606033976069D001D14C9
:1003C80008004001200821040319EB29EC29F12930
:1003D80021088A0020080A008131080040013008FD
:1003E80031040319F829F929FE2931088A0030084F
:1003F8000A0081310800613051018D008F0191019F
:10040800063093009001920108004E01901080314F
:100418004D20823181314A218231080090304601D5
:1004280096007F309500C030940008004F01960177
:100438009701980199019A019B010800C330410175
:100448009E009B019C0101309D000800C3304101C2
:100458009E009B019C0101309D0008000310410192
:100468009D1C03140030093D080040013F08A3000B
:100478003E08A200080040013F08A1003E08A00075
:10048800080040013F08B1003E08B00008004001E4
:100498003F08A7003E08A600080040013F08A90041
:1004A8003E08A800080040013F08A5003E08A40037
:1004B800080040013F08AD003E08AC0008004001BC
:1004C8003F08AF003E08AE00080040013F08AB00FF
:1004D8003E08AA00080041011C08F7001B08F600A6
:1004E80008004E018C128131E521823108004E014D
:1004F8000C108131F2218231080082318922823147
:1005080008008A3052018C00080045018E17080047
:100518004B019E17080041019D1408004E018C12E2
:0A0528000800013408000800080074
:020000040001F9
:0A000E00EC3FFF3F9F3FFF3FFF3F25
:00000001FF
