:0400000080313128F2
:100008007E1480314E01961E0A280B2813288C1E58
:100018000E280F28132882315D2280312F28161CC4
:10002800162817281F280C1C1A281B281F2882315D
:10003800632280312F280B1F222823282F289A1C5F
:10004800262827282F28901C2A282B282F2881315A
:10005800832180312F287E10090080313328F00158
:10006800F101F201F301F401F501F601F701400194
:10007800B201B301B401B501B601B701B801B901C4
:100088007E104001813101298231122280310430F1
:100098008131C021803182317322803182311A222C
:1000A8008031003A031D59285A2852288231572294
:1000B800803179084001B7007808B60005308131F1
:1000C800C021803182317322803182311A228031FD
:1000D800003A031D7028712869288231572280311F
:1000E8007908F3007808F20002308131C0218031AC
:1000F80082317322803182311A228031003A031D05
:10010800862887287F288231572280317908F10094
:100118007808F0000800400198019A0137309200F1
:100128002A30940015307E01CE001F30B800B90186
:10013800CF01BA01D0011F30BB003F30D1003F30A2
:10014800BC003F30D20013307D01900011307E0199
:10015800A0000F30A4000B30A20011307D01CD00AB
:100168001530CB000800083054019F0090309D00E6
:1001780024309E00A0309B0001309C0000304001DC
:10018800BA000030BB008231392280310030400192
:10019800BA000030BB008231332280310030400188
:1001A800BA000030BB0082313F228031F6010800DE
:1001B800083042019F0090309D0024309E00A030FE
:1001C8009B0001309C0000304001BA000030BB00A9
:1001D80082314B22803100304001BA000030BB0030
:1001E80082314522803100304001BA000030BB0026
:1001F800823151228031F701080081312221813179
:100208008B170B1776304001BA000230BB008231E1
:1002180027228131F1304001BA000130BB00823120
:1002280021228131823170228131823169228131EA
:100238008131FA2181311F2980313128823102220E
:10024800813180318F2081318131E72181318231C3
:100258000A2281318131FA21813181314121813173
:1002680081319821813181316E2181318031DC20C9
:1002780081318031B720813108000130450190007B
:100288008F019101FF308D008C014E0190109A145E
:1002980079304001BA000230BB008231212281311D
:1002A800A03045018E0008007908FB007808FA00A4
:1002B800FB36FA0CFB36FA0C7A08460195007808EA
:1002C8000339FA000530FA35FF3E031D67297A35F0
:1002D8009400080080304B019F001E309D009C0157
:1002E8004E018C1296167A304001BA000230BB00DB
:1002F80082312722813180304B019E0008004E0157
:1003080090100130F4070030F53D01307502873058
:1003180003197402031C9129922997298131A62176
:100328008131F401F50108004E010C100B147B30EB
:100338004001BA000230BB0082312D2281314E01CA
:10034800161408004001220823040319AC29AD291A
:10035800B22923088A0022080A008131080073089C
:100368004001B5007208B4003508F9003408F800F7
:100378008131582181310800F9007908F800F80D19
:10038800F80D41011D087806033978069D001D14F3
:1003980008004001200821040319D329D429D929A8
:1003A80021088A0020080A0081310800400130082D
:1003B80031040319E029E129E62931088A003008C7
:1003C8000A0081310800613051018D008F019101CF
:1003D800063093009001920108004E019010803180
:1003E800482081318131B3218131080080304601B4
:1003F80096007F309500C030940008004F019601A8
:100408009701980199019A019B010800C0304101A8
:100418009E009B019C0101309D000800C0304101F5
:100428009E009B019C0101309D00080003104101C2
:100438009D1C03140030093D080040013B08A3003F
:100448003A08A200080040013B08A1003A08A000B1
:10045800080040013B08B1003A08B000080040011C
:100468003B08A7003A08A600080040013B08A9007D
:100478003A08A800080040013B08A5003A08A40073
:10048800080040013B08AD003A08AC0008004001F4
:100498003B08AF003A08AE00080040013B08AB003B
:1004A8003A08AA00080041011C08F9001B08F800D6
:1004B80008004E018C128131CD21823108004E0195
:1004C8000C108131DA218231080082316D228231AB
:1004D800080045018E1708004B019E1708004101CE
:1004E8009D1408004E018C1208000800080008003E
:020000040001F9
:0A000E00EC3FFF3F9F3FFF3FFF3F25
:00000001FF
