:08000000803102288731FD2F39
:100F6C004F0196019701980199019A019B01080084
:100F7C00623051018D008F0191019301900192011A
:100F8C0008008731B62787318731E42787318731CD
:100F9C00BE27873108008731C727873140011A15D2
:100FAC0003109A1E03140318DC2FDF2F40019A162E
:100FBC00E12F40019A12D42F803102284001980170
:100FCC009A01373092001B3094001B307E01CE000A
:100FDC001F30B800B901CF01BA01D0011F30BB00DE
:100FEC003F30D1003F30BC003F30D2000800400100
:040FFC008731D12F39
:020000040001F9
:0A000E00EC3FFF3F9F3FFF3FFF3F25
:00000001FF
